:020000040800F2
:1000000000180020D16A0008515100085B51000817
:1000100000000000000000000000000000000000E0
:10002000000000000000000000000000416B00081C
:100030000000000000000000416B00086151000852
:10004000416B0008416B0008416B0008416B0008E0
:10005000416B0008416B0008416B0008416B0008D0
:10006000416B0008416B0008416B0008416B0008C0
:10007000416B0008416B0008416B0008416B0008B0
:10008000416B00080000000000000000416B000808
:1000900000000000416B0008416B0008416B000844
:1000A00000000000416B0008416B0008416B000834
:1000B000416B000800000000416B0008755100080A
:1000C00010B5064C2378002B07D1054B002B02D02E
:1000D000044800E000BF0123237010BDF801002098
:1000E00000000000E46C0008044B10B5002B03D0A6
:1000F0000349044800E000BF10BDC04600000000F6
:10010000FC010020E46C0008002243088B4274D3F9
:1001100003098B425FD3030A8B4244D3030B8B4208
:1001200028D3030C8B420DD3FF22090212BA030C11
:100130008B4202D31212090265D0030B8B4219D3F2
:1001400000E0090AC30B8B4201D3CB03C01A524112
:10015000830B8B4201D38B03C01A5241430B8B425A
:1001600001D34B03C01A5241030B8B4201D30B0343
:10017000C01A5241C30A8B4201D3CB02C01A52416A
:10018000830A8B4201D38B02C01A5241430A8B422D
:1001900001D34B02C01A5241030A8B4201D30B0216
:1001A000C01A5241CDD2C3098B4201D3CB01C01A30
:1001B000524183098B4201D38B01C01A524143093A
:1001C0008B4201D34B01C01A524103098B4201D328
:1001D0000B01C01A5241C3088B4201D3CB00C01A95
:1001E000524183088B4201D38B00C01A524143080D
:1001F0008B4201D34B00C01A5241411A00D2014632
:10020000524110467047FFE701B5002000F006F8A4
:1002100002BDC0460029F7D076E770477047C04658
:1002200080B500AF074B074A126810210A431A60D5
:10023000002000F009F805F049F900231800BD4638
:1002400080BDC0460020024080B582B000AF78601B
:1002500002F0A2FF0200FA2399001000FFF754FFFA
:100260000300180000F0F0F8796801235B420022D7
:10027000180000F0C3F800231800BD4602B080BD8E
:1002800080B500AF034B1B685A1C024B1A60C04676
:10029000BD4680BD3402002080B500AF024B1B6814
:1002A0001800BD4680BDC0463402002080B582B033
:1002B00000AF0200FB1D1A70064BFA1D12781100E8
:1002C0001F220A40012191400A001A60C046BD4623
:1002D00002B080BD00E100E0B0B582B000AF020026
:1002E0003960FB1D1A70FB1D1B787F2B32D92F4CF8
:1002F000FB1D1B781A000F231340083B99082B4A5B
:10030000FB1D1B7818000F230340083B9B08063396
:100310009B00D31804331B68FA1D127810000322C7
:100320000240D200FF2090400200D2431A403B68B6
:100330009B01FF201840FB1D1B781D0003232B4051
:10034000DB00984003001A438B1D9B00E318043325
:100350001A6027E0164CFB1D1B785BB29B08144902
:10036000FA1D127852B29208C03292005258F91D0A
:100370000978080003210140C900FF2088400100DE
:10038000C94311403A689201FF201040FA1D1278CB
:10039000150003222A40D200904002000A43C033D5
:1003A0009B001A51C046BD4602B0B0BD00ED00E052
:1003B00000E100E080B582B000AF78607B68013B6F
:1003C0000C4A934201D9012310E00B4B7A68013AA1
:1003D0005A6001235B4203211800FFF77DFF064BA3
:1003E00000229A60044B07221A6000231800BD46C1
:1003F00002B080BDFFFFFF0010E000E080B584B0D8
:1004000000AFB9607A600F23FB18021C1A70BA683B
:100410000F23FB181B785BB211001800FFF75CFF7D
:10042000C046BD4604B080BD80B582B000AF0200BA
:10043000FB1D1A70FB1D1B785BB21800FFF736FF1F
:10044000C046BD4602B080BD80B582B000AF7860C6
:100450007B681800FFF7AEFF03001800BD4602B02E
:1004600080BD000080B582B000AF78607B68042B4F
:1004700006D1084B074A126804210A431A6005E0B6
:10048000044B044A126804218A431A60C046BD46E0
:1004900002B080BD10E000E080B500AF00F003F8CE
:1004A000C046BD4680BD80B500AFC046BD4680BDDC
:1004B00010210C4B30B5D8680022084205D00A48FC
:1004C0000232C4692243C2610A000420D968014291
:1004D00005D00121044C0243E5692943E161DA605A
:1004E00030BDC0460020024038020020054B0120EC
:1004F0001A69120604D50020034A5A60034A5A605A
:100500007047C0460020024023016745AB89EFCD0C
:100510008021064A8900136901200B4004D118008C
:1005200003499160034991607047C0460020024032
:1005300023016745AB89EFCD034A044913690020C5
:100540000B4013617047C04600200240FFFDFFFFD3
:1005500070B50400FFF7A0FE01250600104B1A003D
:10056000D96829420FD12021D868084200D0D9602B
:100570001023D068184002D1D3685B0708D5FFF775
:1005800097FF012004E0611CEAD0002C01D1032078
:1005900070BDFFF781FE801B8442DFD2F7E7C046C3
:1005A000002002408023054A10B511699B010B43CE
:1005B00013610348FFF7CCFF10BDC0460020024086
:1005C00050C3000070B506001248FFF7C1FF0028B5
:1005D0001FD12025104B114CD86123690D482B43A6
:1005E00023614023226913432361FFF7B1FF23698D
:1005F000AB43236100280CD12369103D2B432361B9
:10060000074BB6B21E800348FFF7A2FF2369AB4336
:10061000236170BD50C3000038020020002002405A
:1006200000F8FF1F062270B5124CBB25E36913408A
:10063000022B03D01135042B00D0223D0E48FFF7CA
:1006400087FF002814D120260C4BD86123690A4863
:10065000334323614023226913432361FFF778FF6B
:100660002369B3432361002802D1E8B2FFF7AAFF50
:1006700070BDC0460020024050C300003802002078
:10068000F7B5464C0500237E0220012B2DD02B68A8
:1006900001382076034241D0AB68414E01936B682C
:1006A000376A834222D13F48FFF752FF00281AD110
:1006B000E061FFF7B7FF002815D1019B32699F4326
:1006C0001023FFB213433361FF2F06D0364A13893C
:1006D0001F4017813348FFF73BFF102233699343D4
:1006E000336100281AD000232376FEBD2D48FFF782
:1006F0002FFF0028F7D1E061FFF794FF0028F2D127
:10070000019B32693B43DFB2102313433361FF2F58
:10071000E3D0254B1A8917431F81DBE72B689B0722
:1007200004D5287BFFF74EFF0028DCD12B685B0740
:1007300018D56B7B1B480193FFF70AFF0028D2D125
:100740001027174EE0613369174A3B4333616B460C
:100750009B8814485380FFF7FBFE3369BB4333612A
:100760000028C0D12B681B07BDD52B690D4801930C
:100770002E7DFFF7EDFE0028B5D11027084DE06172
:100780002B69B6B23B432B61019B06481E80FFF7E5
:10079000DFFE2B69BB432B61A5E7C0463802002072
:1007A0000020024050C3000000F8FF1F072306216D
:1007B0000360084B1A6A8260DA690A40B531022A7E
:1007C00003D01131042A00D022390173DB691B0ADE
:1007D000437370470020024080B586B000AF786058
:1007E000396000237B610023FB6000233B6149E10A
:1007F0003B681B6801217A6991400A001340FB6045
:10080000FB68002B00D13AE13B685B68022B03D008
:100810003B685B68122B23D17B69DA087B6808325E
:100820009200D3583B617B69072213409B000F2243
:100830009A401300DA433B6913403B613B681A69F5
:100840007B6907210B409B009A4013003A691343D0
:100850003B617B69DA087B68083292003969D150C4
:100860007B681B683B617B695B0003229A40130035
:10087000DA433B6913403B613B685B6803221A40E3
:100880007B695B009A4013003A6913433B617B68C4
:100890003A691A603B685B68012B0BD03B685B6868
:1008A000022B07D03B685B68112B03D03B685B6869
:1008B000122B30D17B689B683B617B695B00032214
:1008C0009A401300DA433B6913403B613B68DA68A6
:1008D0007B695B009A4013003A6913433B617B6874
:1008E0003A699A607B685B683B6101227B699A4048
:1008F0001300DA433B6913403B613B685B681B09AB
:1009000001221A407B699A4013003A6913433B6104
:100910007B683A695A607B68DB683B617B695B0096
:1009200003229A401300DA433B6913403B613B6862
:100930009A687B695B009A4013003A6913433B61F4
:100940007B683A69DA603B685A6880235B0513402C
:1009500000D194E0514B514A926901210A439A61B6
:100960004E4B9B6901221340BB60BB684C4A7B69BC
:100970009B0802339B009B583B617B690322134019
:100980009B000F229A401300DA433B6913403B61FE
:100990007A689023DB059A420DD07B68414A9342E6
:1009A00007D07B68404A934201D1022304E005232B
:1009B00002E0012300E000237A6903210A4092004B
:1009C00093403A6913433B6135497B699B08023385
:1009D0009B003A695A50354B1B683B61FB68DA4310
:1009E0003B6913403B613B685A6880235B021340BC
:1009F00003D03A69FB6813433B612C4B3A691A6098
:100A00002A4B5B683B61FB68DA433B6913403B61FF
:100A10003B685A6880239B02134003D03A69FB6805
:100A200013433B61214B3A695A60204B9B683B6101
:100A3000FB68DA433B6913403B613B685A6880239B
:100A40005B03134003D03A69FB6813433B61174BC8
:100A50003A699A60154BDB683B61FB68DA433B6996
:100A600013403B613B685A6880239B03134003D0CB
:100A70003A69FB6813433B610C4B3A69DA607B6966
:100A800001337B613B681A687B69DA40131E00D032
:100A9000AEE6C046BD4606B080BDC046001002406E
:100AA0000000014000040048000800480004014024
:100AB00090B585B000AF78600023FB600023BB6079
:100AC0007B68002B01D10123DEE07A68EA23FF3343
:100AD000D35CDBB2002B08D17A68F4235B000021E1
:100AE000D1547B68180004F0ADFF7A68EA23FF3325
:100AF0000321D1540023FB6043E07968FA68292080
:100B00001300DB009B1A9B00CB181B1801221A70E4
:100B1000FB68DCB27968FA6828201300DB009B1AB6
:100B20009B00CB181B18221C1A707968FA682B20BE
:100B30001300DB009B1A9B00CB181B1800221A70B5
:100B40007968FA681300DB009B1A9B00CB183433DA
:100B500000221A607968FA681300DB009B1A9B0078
:100B6000CB18383300221A607968FA681300DB006A
:100B70009B1A9B00CB183C3300221A60FB680133A0
:100B8000FB607B685A68FB689A42B6D80023FB601A
:100B90004EE07868FA680A23FF3319001300DB007F
:100BA0009B1A9B00C3185B1800221A70FB68DCB20A
:100BB0007868FA68842359001300DB009B1A9B00B5
:100BC000C3185B18221C1A707868FA680C23FF336C
:100BD00019001300DB009B1A9B00C3185B1800224E
:100BE0001A707868FA688A2359001300DB009B1A90
:100BF0009B00C3185B1800221A607868FA688C237F
:100C000059001300DB009B1A9B00C3185B180022DD
:100C10001A607868FA688E2359001300DB009B1A6B
:100C20009B00C3185B1800221A60FB680133FB604D
:100C30007B685A68FB689A42ABD87B681B68402285
:100C4000012199527B681B684022002199527B68E0
:100C50001B684422002199527B681B6850220021A6
:100C60009952BF231B02BB607B681B68BA6891B2B4
:100C7000402299527B682422002199547A68EA2301
:100C8000FF330121D15400231800BD4605B090BDAB
:100C900080B582B000AF78607B681A687B681B689B
:100CA00058215B5A9BB205490B4399B25823D15244
:100CB00000231800BD4602B080BDC0460080FFFF83
:100CC00080B584B000AF78600023FB607B681B6850
:100CD00044229B5A9BB21A0080231B021A40802395
:100CE0001B029A4203D17B68180001F019FC7B6853
:100CF0001B6844229B5A9BB21A008023DB001A40D7
:100D00008023DB009A4214D17B681A687B681B68D9
:100D100044215B5A9BB277490B4099B24423D1528C
:100D20007B68180004F05EFF7B680021180000F06B
:100D3000EFF87B681B6844229B5A9BB21A00802301
:100D4000DB011A408023DB019A420BD17B681A68D1
:100D50007B681B6844215B5A9BB267490B4099B280
:100D60004423D1527B681B6844229B5A9BB21A00D1
:100D700080239B011A4080239B019A420BD17B6800
:100D80001A687B681B6844215B5A9BB25B490B4025
:100D900099B24423D1527B681B6844229B5A9BB270
:100DA0001A0080235B011A4080235B019A4224D100
:100DB0007B681A687B681B6840215B5A9BB20421E0
:100DC0008B4399B24023D152BD231B02FB607B6849
:100DD0001B68FA6891B2402299527B68180004F0AF
:100DE00027FF7B681A687B681B6844215B5A9BB2AB
:100DF00043490B4099B24423D1527B681B6844227B
:100E00009B5A9BB21A0080231B011A4080231B01AE
:100E10009A4234D17B681A687B681B6844215B5A0C
:100E20009BB238490B4099B24423D1527B681A686F
:100E30007B681B6840215B5A9BB208210B4399B227
:100E40004023D1527B681A687B681B6840215B5A3B
:100E50009BB204210B4399B24023D1527B681B689B
:100E600044229B5A9BB21A0080235B011A408023C4
:100E70005B019A4203D07B68180004F0CAFE7B68CD
:100E80001B6844229B5A9BB21A0080239B001A4085
:100E900080239B009A420FD17B681A687B681B688D
:100EA00044215B5A9BB218490B4099B24423D1525A
:100EB0007B68180004F087FE7B681B6844229B5AFD
:100EC0009BB21A0080235B001A4080235B009A4289
:100ED0000BD17B681A687B681B6844215B5A9BB204
:100EE0000A490B4099B24423D152C046BD4604B0D2
:100EF00080BDC046FFFBFFFFFFBFFFFFFFDFFFFF1F
:100F0000FFEFFFFFFFF7FFFFFFFDFFFFFFFEFFFF0C
:100F100080B582B000AF78600A00FB1C1A707A6856
:100F2000F4235B00D35C012B01D1022319E07A6822
:100F3000F4235B000121D154FB1C1B78002B05D14D
:100F40007B681B684C228021995204E07B68FA1C64
:100F5000242112785A547A68F4235B000021D1547A
:100F600000231800BD4602B080BD000090B587B0D8
:100F700000AF78600C0010001900FB1C221C1A70D6
:100F80003B00021C1A80BB1C0A1C1A701123FB18A0
:100F900000221A70FB1C1B785BB2002B0CDAFB1CC6
:100FA0001B787F221A401300DB009B1A9B0028331A
:100FB0007A68D3187B610CE0FB1C1B787F221A40F7
:100FC0001300DB009B1A9B000933FF337A68D318A8
:100FD0007B61FB1C1B787F221340DAB27B691A709D
:100FE000FB1C1B785BB2DBB2DB09DBB21A007B694E
:100FF0005A703B001A887B69DA607B69BA1C1278E8
:10100000DA707A68F4235B00D35C012B01D10223F0
:101010000FE37A68F4235B000121D1547B69DB780C
:10102000012B4CD002DC002B05D060E0022B1AD043
:10103000032B2CD05BE07B681B681A007B691B7854
:101040009B00D2187B681B6819007B691B789B008A
:10105000CB181B88B6490B409BB2802189000B43FB
:101060009BB2138043E07B681B681A007B691B7886
:101070009B00D2187B681B6819007B691B789B005A
:10108000CB181B88AA490B409BB213802FE07B68CA
:101090001B681A007B691B789B00D2187B681B6851
:1010A00019007B691B789B00CB181B88A0490B405B
:1010B0009BB2C021C9000B439BB2138017E07B6831
:1010C0001B681A007B691B789B00D2187B681B6821
:1010D00019007B691B789B00CB181B8894490B4037
:1010E0009BB28021C9000B439BB21380C0467B6832
:1010F0001B681A007B691B789B00D2187B681B68F1
:1011000019007B691B789B00CB181B8889490B4011
:1011100099B27B691B789BB20B439BB286490B4308
:101120009BB213807B699B7A002B00D014E17B6912
:101130005B78002B55D07B681B6850229B5A9BB272
:101140001A007B691B78DB00D3181A007B681B68C8
:10115000D3188022D200944663441A007B699B888E
:101160005B089BB2DB189BB213807B681B681A007C
:101170007B691B789B00D3181B881A0040231340FF
:1011800015D07B681B681A007B691B789B00D218FE
:101190007B681B6819007B691B789B00CB181B8838
:1011A00064490B409BB265490B439BB213807B683B
:1011B0001B681A007B691B789B00D3181B88604A48
:1011C00013409CB2202363409CB27B681B681A00CA
:1011D0007B691B789B00D318574A224392B21A802E
:1011E0001FE27B681B6850229B5A9BB21A007B69E6
:1011F0001B78DB00D3181A007B681B68D318514A90
:10120000944663441A007B699B885B089BB2DB1899
:101210009BB213807B681B6850229B5A9BB21A00BA
:101220007B691B78DB00D3181A007B681B68D31816
:10123000454A94466344FB607B69DB683E2B1CD9BE
:101240007B69DB685A091223FB181A807B69DB680B
:101250001F22134006D11223FB181A881223FB18F1
:10126000013A1A801223FB181B889B029BB2374A53
:1012700013439AB2FB681A8018E07B69DB685A084E
:101280001223FB181A807B69DB680122134006D009
:101290001223FB181A881223FB1801321A8012231A
:1012A000FB181B889B029AB2FB681A807B681B683C
:1012B0001A007B691B789B00D3181B881A008023B7
:1012C000DB01134015D07B681B681A007B691B7813
:1012D0009B00D2187B681B6819007B691B789B00F8
:1012E000CB181B8813490B409BB219490B439BB287
:1012F00013807B681B681A007B691B789B00D318DE
:101300001B88144A13409CB280235B0163409CB24B
:1013100080239B0163409CB27B681B681A007B6939
:101320001B789B00D318044A224392B21A8078E1BA
:101330008F89FFFF0F0F00008080FFFFC080FFFF3D
:10134000BF8FFFFF04040000060400000080FFFFC1
:1013500080C0FFFF8FBFFFFF7B681B681A007B699F
:101360001B789B00D2187B681B6819007B691B786F
:101370009B00CB181B88B1490B409BB2B0490B4373
:101380009BB213807B681B6850229B5A9BB21A0049
:101390007B691B78DB00D3181A007B681B68D318A5
:1013A0008022D200944663441A007B69DB885B0884
:1013B0009BB2DB189BB213807B681B6850229B5A40
:1013C0009BB21A007B691B78DB00D3181A007B687C
:1013D0001B68D3189B4A944663441A007B691B8997
:1013E0005B089BB2DB189BB213807B695B78002B98
:1013F00000D08FE07B681B681A007B691B789B001C
:10140000D3181B881A008023DB01134015D07B689A
:101410001B681A007B691B789B00D2187B681B68CD
:1014200019007B691B789B00CB181B8886490B40F1
:101430009BB286490B439BB213807B681B681A00E2
:101440007B691B789B00D3181B881A00402313402C
:1014500015D07B681B681A007B691B789B00D2182B
:101460007B681B6819007B691B789B00CB181B8865
:1014700075490B409BB276490B439BB213807B6846
:101480001B681A007B691B789B00D2187B681B685D
:1014900019007B691B789B00CB181B886A490B409D
:1014A0009BB26B490B439BB213807B681B681A008D
:1014B0007B691B789B00D3181B88664A13409CB23B
:1014C00080235B0163409CB280239B0163409CB2FC
:1014D0007B681B681A007B691B789B00D3185E4AE7
:1014E000224392B21A807B681B681A007B691B78C2
:1014F0009B00D3181B88594A13409CB27B681B6819
:101500001A007B691B789B00D318534A224392B27E
:101510001A8086E07B681B681A007B691B789B0039
:10152000D3181B881A008023DB01134015D07B6879
:101530001B681A007B691B789B00D2187B681B68AC
:1015400019007B691B789B00CB181B883E490B4018
:101550009BB23E490B439BB213807B681B681A0009
:101560007B691B789B00D3181B881A00402313400B
:1015700015D07B681B681A007B691B789B00D2180A
:101580007B681B6819007B691B789B00CB181B8844
:101590002D490B409BB22E490B439BB213807B68B5
:1015A0001B681A007B691B789B00D2187B681B683C
:1015B00019007B691B789B00CB181B8822490B40C4
:1015C0009BB222490B439BB213807B681B681A00B5
:1015D0007B691B789B00D3181B88204A13409CB260
:1015E0007B681B681A007B691B789B00D3181A4A1A
:1015F000224392B21A807B681B681A007B691B78B1
:101600009B00D3181B88134A13409CB27B681B684D
:101610001A007B691B789B00D3180F4A224392B2B1
:101620001A807A68F4235B000021D1541123FB183F
:101630001B781800BD4607B090BDC0460F0E0000D5
:101640008081FFFF040400000F0F000080C0FFFF37
:10165000C080FFFF8FBFFFFF8080FFFFBF8FFFFFB6
:1016600090B585B000AF78600A00FB1C1A70FB1CB7
:101670001B785BB2002B0CDAFB1C1B787F221A4014
:101680001300DB009B1A9B0028337A68D318FB6099
:101690000CE0FB1C1B787F221A401300DB009B1A16
:1016A0009B000933FF337A68D318FB60FB1C1B785F
:1016B0007F221340DAB2FB681A70FB1C1B785BB206
:1016C000DBB2DB09DBB21A00FB685A707A68F423DC
:1016D0005B00D35C012B01D102239AE17A68F423E9
:1016E0005B000121D154FB689B7A002B00D076E08F
:1016F000FB685B78002B38D07B681B681A00FB689E
:101700001B789B00D3181B881A004023134015D068
:101710007B681B681A00FB681B789B00D2187B68EB
:101720001B681900FB681B789B00CB181B88BB4902
:101730000B409BB2BA490B439BB213807B681B687A
:101740001A00FB681B789B00D3181B88B54A13400E
:101750009CB27B681B681A00FB681B789B00D3183F
:10176000B14A224392B21A804DE17B681B681A008D
:10177000FB681B789B00D3181B881A008023DB01B1
:10178000134015D07B681B681A00FB681B789B0010
:10179000D2187B681B681900FB681B789B00CB186C
:1017A0001B889E490B409BB2A0490B439BB2138000
:1017B0007B681B681A00FB681B789B00D3181B888A
:1017C0009B4A13409CB27B681B681A00FB681B781D
:1017D0009B00D318944A224392B21A8013E1FB680B
:1017E0005B78002B00D087E07B681B681A00FB68E1
:1017F0001B789B00D3181B881A008023DB01134041
:1018000015D07B681B681A00FB681B789B00D218F8
:101810007B681B681900FB681B789B00CB181B8832
:101820007E490B409BB281490B439BB213807B687E
:101830001B681A00FB681B789B00D3181B881A00D2
:101840004023134015D07B681B681A00FB681B7887
:101850009B00D2187B681B681900FB681B789B00F3
:10186000CB181B886D490B409BB26D490B439BB253
:1018700013807B681B681A00FB681B789B00D218DA
:101880007B681B681900FB681B789B00CB181B88C2
:1018900062490B409BB262490B439BB213807B6849
:1018A0001B681A00FB681B789B00D3181B88604AD2
:1018B00013409CB27B681B681A00FB681B789B0076
:1018C000D318594A224392B21A807B681B681A00C7
:1018D000FB681B789B00D3181B88524A13409CB2AC
:1018E0007B681B681A00FB681B789B00D3184E4A64
:1018F000224392B21A8086E07B681B681A00FB685C
:101900001B789B00D3181B881A008023DB0113402F
:1019100015D07B681B681A00FB681B789B00D218E7
:101920007B681B681900FB681B789B00CB181B8821
:101930003A490B409BB23D490B439BB213807B68F5
:101940001B681A00FB681B789B00D3181B881A00C1
:101950004023134015D07B681B681A00FB681B7876
:101960009B00D2187B681B681900FB681B789B00E2
:10197000CB181B8829490B409BB229490B439BB2CA
:1019800013807B681B681A00FB681B789B00D218C9
:101990007B681B681900FB681B789B00CB181B88B1
:1019A0001E490B409BB221490B439BB213807B68BD
:1019B0001B681A00FB681B789B00D3181B88194A08
:1019C00013409CB27B681B681A00FB681B789B0065
:1019D000D318154A224392B21A807B681B681A00FA
:1019E000FB681B789B00D3181B88114A13409CB2DC
:1019F0007B681B681A00FB681B789B00D3180A4A97
:101A0000224392B21A807A68F4235B000021D154F9
:101A100000231800BD4605B090BDC0460F0F000062
:101A2000C080FFFFBF8FFFFF8080FFFF80C0FFFFF0
:101A30008FBFFFFF90B58BB000AFF8607A603B605E
:101A40000B23FB180A1C1A700B23FB181B787F2230
:101A50001A401300DB009B1A9B000933FF33FA681E
:101A6000D318FB61FB697A681A61FB693A685A61AD
:101A7000FB6900229A61FB6900225A700B23FB1854
:101A80001B787F221340DAB2FB691A70FB695A692E
:101A9000FB69DB689A4209D9FB69DB683B60FB693B
:101AA0005A693B68D21AFB695A6105E0FB695B69B8
:101AB0003B60FB6900225A61FB699B7A002B47D18E
:101AC000FB681B6850229B5A9BB21A00FB691B786B
:101AD000DB00D3181A00FB681B68D318924A94469F
:101AE0006344BB613B683E2B1AD93B685A092623E5
:101AF000FB181A803B681F22134006D12623FB18CF
:101B00001A882623FB18013A1A802623FB181B8803
:101B10009B029BB2854A13439AB2BB691A80DFE0ED
:101B20003B685A082623FB181A803B6801221340A1
:101B300006D02623FB181A882623FB1801321A80A8
:101B40002623FB181B889B029AB2BB691A80C7E048
:101B5000FB695B78002B47D1FB681B6850229B5ABE
:101B60009BB21A00FB691B78DB00D3181A00FB68D4
:101B70001B68D3186E4A944663447B613B683E2BD6
:101B80001AD93B685A092423FB181A803B681F2284
:101B9000134006D12423FB181A882423FB18013A8A
:101BA0001A802423FB181B889B029BB25F4A1343B5
:101BB0009AB27B691A802FE03B685A082423FB18ED
:101BC0001A803B680122134006D02423FB181A8890
:101BD0002423FB1801321A802423FB181B889B0244
:101BE0009AB27B691A8017E0FB695B78012B13D1ED
:101BF000FB681B6850229B5A9BB21A00FB691B783A
:101C0000DB00D3181A00FB681B68D318484A9446B7
:101C100063443A6892B21A80FB695B78002B47D123
:101C2000FB681B6850229B5A9BB21A00FB691B7809
:101C3000DB00D3181A00FB681B68D3183A4A944695
:101C400063443B613B683E2B1AD93B685A09222307
:101C5000FB181A803B681F22134006D12223FB1871
:101C60001A882223FB18013A1A802223FB181B88AA
:101C70009B029BB22D4A13439AB23B691A802FE014
:101C80003B685A082223FB181A803B680122134044
:101C900006D02223FB181A882223FB1801321A804F
:101CA0002223FB181B889B029AB23B691A8017E01B
:101CB000FB695B78012B13D1FB681B6850229B5A90
:101CC0009BB21A00FB691B78DB00D3181A00FB6873
:101CD0001B68D318144A944663443A6892B21A8037
:101CE000FB681B681A00FB691B789B00D3181B88D4
:101CF000104A13409CB280235B0163409CB2802356
:101D00009B0163409CB2FB681B681A00FB691B784F
:101D10009B00D318084A224392B21A80002318006D
:101D2000BD460BB090BDC046060400000080FFFF1A
:101D3000020400008FBFFFFF8080FFFF80B582B0EC
:101D400000AF78600A00FB1C1A70FB1C1B787F2216
:101D50001A407868902359001300DB009B1A9B00FF
:101D6000C3185B181B689BB21800BD4602B080BD4B
:101D700090B58BB000AFF8607A603B600B23FB1826
:101D80000A1C1A702623FB1800221A800B23FB184A
:101D90001B787F221A401300DB009B1A9B0028331C
:101DA000FA68D318FB61FB697A681A61FB693A68C3
:101DB0005A61FB6900229A61FB6901225A700B2368
:101DC000FB181B787F221340DAB2FB691A70FB699B
:101DD0005A69FB69DB689A4209D9FB69DB683B6099
:101DE000FB695A693B68D21AFB695A6105E0FB69D5
:101DF0005B693B60FB6900225A61FB699B7A002B9F
:101E00001ED1FB681868FB691969FB699A883B68F1
:101E10009BB200F0F7FAFB681B6850229B5A9BB2FA
:101E20001A00FB691B78DB00D3181A00FB681B68DB
:101E3000D318A44A944663443A6892B21A801FE1C8
:101E4000FB681B681A00FB691B789B00D3181B8872
:101E50001A004023134069D0FB695B78002B47D1FF
:101E6000FB681B6850229B5A9BB21A00FB691B78C7
:101E7000DB00D3181A00FB681B68D318924A9446FB
:101E80006344BB613B683E2B1AD93B685A09242343
:101E9000FB181A803B681F22134006D12423FB182D
:101EA0001A882423FB18013A1A802423FB181B8864
:101EB0009B029BB2854A13439AB2BB691A802FE0FA
:101EC0003B685A082423FB181A803B680122134000
:101ED00006D02423FB181A882423FB1801321A8009
:101EE0002423FB181B889B029AB2BB691A8017E057
:101EF000FB695B78012B13D1FB681B6850229B5A4E
:101F00009BB21A00FB691B78DB00D3181A00FB6830
:101F10001B68D3186C4A944663443A6892B21A809C
:101F20002623FB18FA6912891A8068E0FB695B783E
:101F3000002B47D1FB681B6850229B5A9BB21A00AA
:101F4000FB691B78DB00D3181A00FB681B68D318E9
:101F50005C4A944663447B613B683E2B1AD93B68DC
:101F60005A092223FB181A803B681F22134006D10E
:101F70002223FB181A882223FB18013A1A802223F5
:101F8000FB181B889B029BB2504A13439AB27B6991
:101F90001A802FE03B685A082223FB181A803B68FE
:101FA0000122134006D02223FB181A882223FB1893
:101FB00001321A802223FB181B889B029AB27B698C
:101FC0001A8017E0FB695B78012B13D1FB681B6853
:101FD00050229B5A9BB21A00FB691B78DB00D31876
:101FE0001A00FB681B68D318364A944663443A6863
:101FF00092B21A802623FB18FA69D2881A80FB68ED
:102000001868FB6919693B689CB22623FB181A887B
:10201000230000F0F7F9FB695B78002B16D1FB6811
:102020001B681A00FB691B789B00D218FB681B68B1
:102030001900FB691B789B00CB181B8824490B40B7
:102040009BB224490B439BB2138019E0FB695B7878
:10205000012B15D1FB681B681A00FB691B789B00DC
:10206000D218FB681B681900FB691B789B00CB1812
:102070001B8817490B409BB217490B439BB2138037
:10208000FB681B681A00FB691B789B00D3181B8830
:10209000124A13409CB2102363409CB22023634039
:1020A0009CB2FB681B681A00FB691B789B00D31865
:1020B0000B4A224392B21A8000231800BD460BB08F
:1020C00090BDC04602040000060400000080FFFF2F
:1020D0000F0F0000C080FFFF80C0FFFFBF8FFFFF1A
:1020E0008080FFFF90B585B000AF78600A00FB1CD0
:1020F0001A707A68F4235B00D35C012B01D10223B0
:1021000096E07A68F4235B000121D154FB1C1B7814
:102110005BB2002B0CDAFB1C1B787F221A401300E9
:10212000DB009B1A9B0028337A68D318FB600AE017
:10213000FB1C1A781300DB009B1A9B000933FF334A
:102140007A68D318FB60FB6801229A70FB1C1B782D
:102150007F221340DAB2FB681A70FB1C1B785BB25B
:10216000DBB2DB09DBB21A00FB685A70FB681B7834
:10217000002B1FD17B681B681A00FB681B789B0033
:10218000D3181B881A002C4B1A40140080235B01C3
:1021900063401C00102363401C007B681B681A000E
:1021A000FB681B789B00D318A2B224490A4392B261
:1021B0001A8037E0FB685B78002B19D07B681B68BE
:1021C0001A00FB681B789B00D3181B881C4A13401D
:1021D0009CB2102363409CB27B681B681A00FB68AA
:1021E0001B789B00D318154A224392B21A8019E03B
:1021F0007B681B681A00FB681B789B00D3181B8840
:10220000104A13409CB280235B0163409CB27B6800
:102210001B681A00FB681B789B00D318074A2243EF
:1022200092B21A807A68F4235B000021D154002313
:102230001800BD4605B090BDBFBF00008080FFFF05
:10224000BF8FFFFF8FBFFFFF90B585B000AF7860F5
:102250000A00FB1C1A70FB1C1B785BB2002B0CDA0B
:10226000FB1C1B787F221A401300DB009B1A9B008B
:1022700028337A68D318FB600AE0FB1C1A78130035
:10228000DB009B1A9B000933FF337A68D318FB608D
:10229000FB6800229A70FB1C1B787F221340DAB285
:1022A000FB681A70FB1C1B785BB2DBB2DB09DBB28C
:1022B0001A00FB685A707A68F4235B00D35C012B28
:1022C00001D102238EE07A68F4235B000121D1540E
:1022D000FB685B78002B3ED07B681B681A00FB68AC
:1022E0001B789B00D3181B881A004023134015D07D
:1022F0007B681B681A00FB681B789B00D2187B6800
:102300001B681900FB681B789B00CB181B8837499A
:102310000B409BB236490B439BB213807B681B6812
:102320001A00FB681B789B00D3181B88314A1340A6
:102330009CB2102363409CB2202363409CB27B6814
:102340001B681A00FB681B789B00D3182A4A22439B
:1023500092B21A8040E07B681B681A00FB681B7809
:102360009B00D3181B881A008023DB01134015D073
:102370007B681B681A00FB681B789B00D2187B687F
:102380001B681900FB681B789B00CB181B8817493A
:102390000B409BB219490B439BB213807B681B68AF
:1023A0001A00FB681B789B00D3181B88144A134043
:1023B0009CB280235B0163409CB280239B016340FD
:1023C0009CB27B681B681A00FB681B789B00D318C3
:1023D000094A224392B21A807A68F4235B000021F2
:1023E000D15400231800BD4605B090BD0F0F00006A
:1023F000C080FFFFBF8FFFFF8080FFFF80C0FFFF17
:102400008FBFFFFF80B588B000AFF860B9601900DA
:10241000BB1D1A803B1D0A1C1A803B1D1B88013303
:102420005B087B61BB1D1A88FB68D3188022D20031
:1024300094466344BB617B69FB6120E0BB681A780A
:102440001223FB181A80BB680133BB60BB681B7882
:102450009BB21B0299B21023FB181222BA181288E1
:102460000A431A80BB699A1CBA611022BA181288F2
:102470001A80BB680133BB60FB69013BFB61FB69F0
:10248000002BDBD1C046BD4608B080BD80B588B00A
:1024900000AFF860B9601900BB1D1A803B1D0A1C13
:1024A0001A803B1D1B885B089BB27B61BB1D1A8891
:1024B000FB68D3188022D20094466344BB617B69D9
:1024C000FB6114E0BB699A1CBA611B883B61BB6865
:1024D0005A1CBA603A69D2B21A70BB685A1CBA6008
:1024E0003A69120AD2B21A70FB69013BFB61FB69BF
:1024F000002BE7D13B1D1B88012213409BB2002B10
:102500000AD0BB699A1CBA611B883B61BB685A1C24
:10251000BA603A69D2B21A70C046BD4608B080BDF2
:1025200090B589B000AF78601E23FB1800221A8096
:102530000C23FB1800221A804BE30E23FB181B8888
:102540009BB2DAB21B23FB180F210A401A701B231F
:10255000FB181B78002B00D039E10E23FB181B88D9
:102560009BB21A00102313404CD17B681B681900E2
:102570007B681B681B88C74A13409BB20B807B6833
:1025800028337B617B681B6850229B5A9BB21A00E0
:102590007B691B78DB00D3181A007B681B68D31893
:1025A000BD4A944663441B889B059A0D7B699A61DA
:1025B0007B691A697B699B69D2187B691A617B68A0
:1025C0000021180003F0E1FA7B6824229B5CDBB257
:1025D000002B00D1FDE27B695B69002B00D0F8E2A3
:1025E0007B681B687A682421525CD2B28021494200
:1025F0000A43D2B291B24C2299527B682422002124
:102600009954E6E27B680933FF337B617B681B6882
:102610001A880C23FB181A800C23FB181B889BB20A
:102620001A0080231B01134031D07B681B685022A5
:102630009B5A9BB21A007B691B78DB00D3181A00E7
:102640007B681B68D318954A944663441B889B0596
:102650009A0D7B699A617B6818687B68ED33FF335C
:1026600019007B699A887B699B699BB2FFF70EFF13
:102670007B681B6819007B681B681B88884A1340AD
:102680009BB20B807B68180003F004FAA1E20C23D4
:10269000FB181B889BB21BB2002B00DB99E27B6806
:1026A0001B6819007B681B681B887D4A13409BB21E
:1026B0000B807B681B6850229B5A9BB21A007B6977
:1026C0001B78DB00D3181A007B681B68D318734A89
:1026D000944663441B889B059A0D7B699A617B69CC
:1026E0009B69002B11D07B6818687B6919697B692D
:1026F0009A887B699B699BB2FFF7C8FE7B691A6960
:102700007B699B69D2187B691A617B68002118007C
:1027100003F01AFA7B681B6850229B5A9BB21A007E
:102720007B681B68D3185D4A944663443B617B69B0
:10273000DB683E2B1CD97B69DB685A091C23FB181C
:102740001A807B69DB681F22134006D11C23FB180B
:102750001A881C23FB18013A1A801C23FB181B88BB
:102760009B029BB24F4A13439AB23B691A8018E00E
:102770007B69DB685A081C23FB181A807B69DB68BD
:102780000122134006D01C23FB181A881C23FB18B7
:1027900001321A801C23FB181B889B029AB23B69EA
:1027A0001A807B681B681B883F4A13409CB28023B9
:1027B0005B0163409CB280239B0163409CB27B68B9
:1027C0001B681A00394B23439BB2138001E27B68DC
:1027D0001B681A001B23FB181B789B00D3181A8850
:1027E0000C23FB181A800C23FB181B889BB21BB20E
:1027F000002B00DBFAE07B681B681A001B23FB1828
:102800001B789B00D2187B681B6819001B23FB18E0
:102810001B789B00CB181B8821490B409BB213806F
:102820001B23FB181A781300DB009B1A9B0009334B
:10283000FF337A68D3187B617B699B7A002B37D191
:102840007B681B6850229B5A9BB21A007B691B78DD
:10285000DB00D3181A007B681B68D3180F4A944614
:1028600063441A881E23FB189205920D1A801E23BA
:10287000FB181B88002B00D18CE07B6818687B69F3
:1028800019697B699A881E23FB181B88FFF7FEFDD8
:1028900080E0C0460F8FFFFF020400000604000026
:1028A0008F0F00000080FFFF8FBFFFFF8080FFFFC2
:1028B0007B681B681A007B691B789B00D3181B88F8
:1028C0001A008023DB01134027D07B681B6850224D
:1028D0009B5A9BB21A007B691B78DB00D3181A0045
:1028E0007B681B68D318C44A944663441A881E2325
:1028F000FB189205920D1A801E23FB181B88002BD3
:1029000032D07B6818687B6919697B69DA881E2375
:10291000FB181B88FFF7BAFD26E07B681B68502276
:102920009B5A9BB21A007B691B78DB00D3181A00F4
:102930007B681B68D318B14A944663441A881E23E7
:10294000FB189205920D1A801E23FB181B88002B82
:102950000AD07B6818687B6919697B691A891E230C
:10296000FB181B88FFF792FD7B681B681A007B69C8
:102970001B789B00D2187B681B6819007B691B7849
:102980009B00CB181B889E490B409BB29D490B4373
:102990009BB213807B699A691E23FB181B88D2188F
:1029A0007B699A617B691A691E23FB181B88D21800
:1029B0007B691A617B695B69002B06D01E23FB18BB
:1029C0001A887B69DB689A4207D27B691A787B6830
:1029D0001100180003F0B8F808E07B6919787B69EA
:1029E0001A697B695B697868FFF724F80C23FB1888
:1029F0001B889BB21A008023134000D1E9E01B23FF
:102A0000FB181A781300DB009B1A9B0028337A68A6
:102A1000D3187B617B681B681A001B23FB181B788B
:102A20009B00D2187B681B6819001B23FB181B78BE
:102A30009B00CB181B8874490B409BB213807B69A9
:102A40009B7A002B26D17B681B6850229B5A9BB235
:102A50001A007B691B78DB00D3181A007B681B689F
:102A6000D318654A944663441B889B059A0D7B697D
:102A70009A617B699B69002B00D178E07B681868BC
:102A80007B6919697B699A887B699B699BB2FFF7AF
:102A9000B9FC6CE07B681B681A007B691B789B00A3
:102AA000D3181B881A004023134025D07B681B686D
:102AB00050229B5A9BB21A007B691B78DB00D3180B
:102AC0001A007B681B68D3184B4A944663441B88E2
:102AD0009B059A0D7B699A617B699B69002B30D0BD
:102AE0007B6818687B6919697B69DA887B699B69EF
:102AF0009BB2FFF787FC24E07B681B6850229B5A3F
:102B00009BB21A007B691B78DB00D3181A007B6824
:102B10001B68D318394A944663441B889B059A0D59
:102B20007B699A617B699B69002B0AD07B68186876
:102B30007B6919697B691A897B699B699BB2FFF77D
:102B400061FC7B681B681A007B691B789B00D218AC
:102B50007B681B6819007B691B789B00CB181B885E
:102B600027490B409BB229490B439BB213807B68DA
:102B70001B6850229B5A9BB21A007B691B78DB00B2
:102B8000D3181A007B681B68D3181B4A9446634409
:102B90001B889B059A0D7B699A617B691A697B6921
:102BA0009B69D2187B691A617B695B69002B07D12D
:102BB0007B691A787B681100180002F0E6FF08E0D4
:102BC0007B6919787B691A697B695B697868FFF7AB
:102BD000CFF87B681B6844229B5A9AB20E23FB18DD
:102BE000111C198013B2002B00DAA6E40023180090
:102BF000BD4609B090BDC0460204000006040000B6
:102C00000F0F0000C080FFFF0F8FFFFF80C0FFFF8E
:102C100080B586B000AFF860080011007B600A2321
:102C2000FB18021C1A800823FB180A1C1A800A23AE
:102C3000FB181B88802213409BB2002B0DD00A2367
:102C4000FB181B887F221A401300DB009B1A9B0095
:102C50002833FA68D3187B610BE00A23FB181A8823
:102C60001300DB009B1A9B000933FF33FA68D3186B
:102C70007B610823FB181B88002B07D17B6900228E
:102C80009A727B689AB27B699A800BE07B69012219
:102C90009A727B689AB27B69DA807B681B0C9AB265
:102CA0007B691A8100231800BD4606B080BD000074
:102CB00080B584B000AF78600023FB607B681B6840
:102CC000202213405CD06D4B5B680C2213400C2B10
:102CD0000ED06A4B5B680C221340082B14D1674B53
:102CE0005A68C0235B021A40C0235B029A420BD190
:102CF000624B5A6B80235B02134040D07B681B6A97
:102D0000012B3CD00123B5E07B681B6A002B1BD054
:102D10005A4B5A4A526B802149020A435A63FDF7C3
:102D2000BBFA0300FB6008E0FDF7B6FA0200FB689F
:102D3000D31A022B01D903239CE0504B5A6B8023FA
:102D40005B021340F0D01BE04C4B4C4A526B4C4999
:102D50000A405A63FDF7A0FA0300FB6008E0FDF7A4
:102D60009BFA0200FB68D31A022B01D9032381E0EE
:102D7000424B5A6B80235B021340F0D100E0C04607
:102D80007B685B6A002B00D173E03C4B5B680C22D4
:102D90001340082B00D16AE07B685B6A022B4BD1A1
:102DA000364B364A126837490A401A60FDF774FA02
:102DB0000300FB6008E0FDF76FFA0200FB68D31A1E
:102DC000022B01D9032355E02C4B1A6880239B0466
:102DD0001340F0D1294A294BDB6A0F218B4319009C
:102DE0007B681B6B0B43D362244A244B5B682649E8
:102DF00019407B68D86A7B689B6A03430B43536026
:102E00001E4B1E4A1268802149040A431A60FDF7CE
:102E100043FA0300FB6008E0FDF73EFA0200FB689E
:102E2000D31A022B01D9032324E0144B1A68802300
:102E30009B041340F0D01CE0104B104A126811495B
:102E40000A401A60FDF728FA0300FB6008E0FDF76E
:102E500023FA0200FB68D31A022B01D9032309E0ED
:102E6000064B1A6880239B041340F0D101E0012334
:102E700000E000231800BD4604B080BD00100240F1
:102E8000FFFFFEFFFFFFFFFEFF7FC2FF80B584B0A4
:102E900000AF786039600023FB607A4B1B68012229
:102EA0001A403B689A4211D2764B764A1268012149
:102EB0008A4311003A680A431A60724B1B68012268
:102EC0001A403B689A4201D00123D7E07B681B6817
:102ED0000222134009D06C4A6B4B5B68F0218B4394
:102EE00019007B689B680B4353607B681B68012259
:102EF000134000D189E07B685B68012B07D1624BEE
:102F00001A6880239B02134020D10123B6E07B681E
:102F10005B68022B07D15C4B1A6880239B0413402B
:102F200014D10123AAE07B685B68032B07D1564BC1
:102F30005A6B80235B02134008D101239EE0524B61
:102F40001B680222134001D1012397E04E4A4E4BE9
:102F50005B6803218B4319007B685B680B435360FC
:102F6000FDF79AF90300FB607B685B68012B11D1C8
:102F700009E0FDF791F90200FB68D31A434A934236
:102F800001D903237AE0404B5B680C221340042BE9
:102F9000EFD13AE07B685B68022B11D109E0FDF7C5
:102FA0007BF90200FB68D31A384A934201D9032304
:102FB00064E0354B5B680C221340082BEFD124E012
:102FC0007B685B68032B1BD109E0FDF765F9020004
:102FD000FB68D31A2D4A934201D903234EE02A4BB2
:102FE0005B680C2213400C2BEFD10EE0FDF754F977
:102FF0000200FB68D31A254A934201D903233DE01E
:10300000214B5B680C221340F0D11E4B1B68012240
:103010001A403B689A4211D91A4B1A4A1268012188
:103020008A4311003A680A431A60164B1B68012252
:103030001A403B689A4201D001231FE07B681B685D
:103040000422134008D0104A0F4B5B681049194006
:103050007B68DB680B43536000F020F801000A4BEB
:103060005B681B090F2213400A4AD35C0A00DA404E
:10307000094B1A600020FDF7E7F800231800BD4651
:1030800004B080BD00200240001002408813000000
:10309000FFF8FFFF0C6E00080000002090B58FB015
:1030A00000AF1423FB18374A13CA13C312681A60FF
:1030B0003B1D354A13CA13C312681A600023FB6212
:1030C0000023BB6200237B6300237B6200233B63FE
:1030D0002E4B5B68FB62FB6A0C221340082B06D068
:1030E0000C2B43D0042B44D1294B3B6344E0FB6AB7
:1030F0009B0C0F2213401422BA18D35C7B62234B23
:10310000DB6A0F2213403A1DD35CBB62FA6AC0230C
:103110005B021A4080235B029A4209D1B96A1C48BB
:10312000FCF7F2FF03001A007B6A53437B631AE04B
:10313000FA6AC0235B021A40C0235B029A4209D19B
:10314000B96A1448FCF7E0FF03001A007B6A534396
:103150007B6308E0B96A0E48FCF7D6FF03001A004B
:103160007B6A53437B637B6B3B6305E0094B3B63AB
:1031700002E0074B3B63C0463B6B1800BD460FB0F7
:1031800090BDC046FC6C00080C6D000800100240A9
:1031900000127A00006CDC0280B500AF024B1B68A5
:1031A0001800BD4680BDC0460000002080B586B036
:1031B00000AF786000233B610023FB607B681A68E6
:1031C00080235B02134000D18EE01723FB180022FE
:1031D0001A70674BDA6980235B05134011D1644B89
:1031E000634AD269802149050A43DA61604BDA6992
:1031F00080235B051340BB60BB681723FB180122CB
:103200001A705C4B1A6880235B0013401AD1594B2B
:10321000584A1268802149000A431A60FDF73CF8B9
:1032200003003B6108E0FDF737F802003B69D31A61
:10323000642B01D9032396E04E4B1A6880235B0070
:103240001340F0D04A4B1A6AC0239B001340FB6026
:10325000FB68002B34D07B685A68C0239B001A405F
:10326000FB689A422CD0424B1B6A434A1340FB60D6
:103270003F4B3F4A126A802149020A431A623C4B83
:103280003B4A126A3D490A401A62394BFA681A628F
:10329000FB680122134013D0FCF7FEFF03003B61E3
:1032A00009E0FCF7F9FF02003B69D31A344A934264
:1032B00001D9032357E02E4B1B6A02221340F0D0A2
:1032C0002B4A2B4B1B6A2C4919407B685B680B43CC
:1032D00013621723FB181B78012B05D1244B244ABA
:1032E000D26928490A40DA617B681B6801221340D1
:1032F00009D01F4A1E4B1B6B03218B4319007B68AF
:103300009B680B4313637B681B682022134009D022
:10331000174A174B1B6B10218B4319007B68DB6826
:103320000B4313637B681A6880239B02134009D008
:103330000F4A0F4B1B6B80218B4319007B685B6925
:103340000B4313637B681A688023DB00134009D0AA
:10335000074A074B1B6B40218B4319007B681B6995
:103360000B43136300231800BD4606B080BDC04662
:103370000010024000700040FFFCFFFFFFFFFEFF57
:1033800088130000FFFFFFEF80B584B000AF7860C6
:103390000023FB601B4B1B4A1269802109050A436D
:1033A0001A61184B174A126917490A401A617B685B
:1033B0001A687B685B681A437B689B681343FB60F1
:1033C0007B68DB68FA681343FB607B681B691B043E
:1033D000FA681343FB600D4BFA685A600B4A0B4BBB
:1033E0001B680B4919407B685B691B020B43136028
:1033F000064B064A126860210A431A60C046BD4661
:1034000004B080BD00100240FFFFFFF7006C0040D9
:10341000FFC0FFFF80B584B000AFF860B960FB1D4E
:103420001A70FB68002B01D1022320E0FA68852383
:103430009B00D358002B04D0FA6885239B00002101
:10344000D150BB68002B04D0FA6884239B00B96874
:10345000D150FA68FE235B000121D154FB68FA1DAC
:1034600012781A70FB68180002F0F2FB00231800B3
:10347000BD4604B080BD80B584B000AF78603960CF
:103480000F23FB1800221A703B68002B09D07A68C2
:1034900085239B003968D1500F23FB1800221A7036
:1034A00003E00F23FB1802221A700F23FB181B786E
:1034B0001800BD4604B080BD80B582B000AF786012
:1034C0007B68180002F01AFC00231800BD4602B009
:1034D00080BD80B582B000AF786000231800BD4683
:1034E00002B080BD80B584B000AF78600A00FB1CDC
:1034F0001A700F23FB1802221A707A6885239B002A
:10350000D358002B0FD07A6885239B00D3581B68B3
:10351000FA1C11787A6810009847031E03D10F2314
:10352000FB1800221A700F23FB181B781800BD46E9
:1035300004B080BD80B582B000AF78600A00FB1C8B
:103540001A707A6885239B00D3585B68FA1C11783F
:103550007A681000984700231800BD4602B080BD6D
:1035600080B582B000AF786039607B6882229200BB
:10357000944663443A681100180000F040FE7A68EF
:10358000FA235B000121D1507B68224A9B5A190023
:103590007A68FC235B00D1507A6882239B00D35C5D
:1035A0001A001F231340012B0DD0022B15D0002B26
:1035B0001DD17B68822292009A187B681100180046
:1035C00000F0C0F920E07B68822292009A187B68A4
:1035D0001100180000F00AFA16E07B6882229200BF
:1035E0009A187B681100180000F03FFA0CE07A6826
:1035F00082239B00D35C7F229343DAB27B68110065
:10360000180002F0C3FBC04600231800BD4602B0FC
:1036100080BDC0460E02000080B586B000AFF860E5
:103620007A600B23FB180A1C1A700B23FB181B78FB
:10363000002B3ED1FB680533FF337B61FA68FA2328
:103640005B00D358032B4CD17B699A687B69DB689C
:103650009A4214D97B699A687B69DB68D21A7B69C4
:103660009A607B69DA687B699B689A4200D91A0084
:1036700092B27968FB68180000F0DAFE31E0FA686F
:1036800085239B00D3581B69002B0DD0FA68FE23BD
:103690005B00D35C032B07D1FA6885239B00D358CA
:1036A0001B69FA6810009847FB68180000F0D3FE09
:1036B00017E0FA6885239B00D3589B69002B10D034
:1036C000FA68FE235B00D35C032B0AD1FA688523DA
:1036D0009B00D3589B690B22BA181178FA68100026
:1036E000984700231800BD4606B080BD80B586B05F
:1036F00000AFF8607A600B23FB180A1C1A700B23CA
:10370000FB181B78002B00D077E0FB6814337B613B
:10371000FA68FA235B00D358022B5ED17B699A6862
:103720007B69DB689A4215D97B699A687B69DB689B
:10373000D21A7B699A607B699B689AB27968FB6848
:10374000180000F03EFEF86800230022002102F07D
:10375000B2FB42E07B695A687B69DB6819001000A4
:10376000FCF758FD0B1E1FD17B695A687B69DB682B
:103770009A4219D37B695A68F968FC235B00CB58DD
:103780009A4211D2FB6800220021180000F019FEB5
:10379000FA68FC235B000021D150F8680023002266
:1037A000002102F088FB18E0FA6885239B00D358BB
:1037B000DB68002B0DD0FA68FE235B00D35C032B83
:1037C00007D1FA6885239B00D358DB68FA6810009C
:1037D0009847FB68180000F052FEFA6880239B00AF
:1037E000D35C012B21D1FB681800FFF772FEFA6849
:1037F00080239B000021D15417E0FA6885239B00A9
:10380000D3585B69002B10D0FA68FE235B00D35CB1
:10381000032B0AD1FA6885239B00D3585B690B22DE
:10382000BA181178FA681000984700231800BD46AE
:1038300006B080BD80B582B000AF78607868402364
:103840000022002102F06AFA7A6888235B00402196
:10385000D150786840230022802102F05FFA7B6813
:1038600040221A627A68FE235B000121D1547A68F3
:1038700086239B00D358002B0AD07A6885239B00AF
:10388000D3585A687B685B68D9B27B681800904748
:1038900000231800BD4602B080BD80B582B000AFE5
:1038A00078600A00FB1C1A707B68FA1C12781A7484
:1038B00000231800BD4602B080BD80B582B000AFC5
:1038C00078607A68FE235B00D15C7A68FE23FF3360
:1038D000D1547A68FE235B000421D15400231800E0
:1038E000BD4602B080BD80B582B000AF78607A6816
:1038F000FE23FF33D15C7A68FE235B00D1540023A2
:103900001800BD4602B080BD80B582B000AF7860BF
:103910007A68FE235B00D35C032B0ED17A68852383
:103920009B00D358DB69002B07D07A6885239B0066
:10393000D358DB697A681000984700231800BD4609
:1039400002B080BD80B584B000AF786039600F23CD
:10395000FB1800221A703B685B78092B35D89A0057
:10396000214BD3181B689F463A687B6811001800EA
:1039700000F092F930E03A687B681100180000F01E
:103980009DFA29E03A687B681100180000F0E6FA19
:1039900022E03A687B681100180000F07BFB1BE016
:1039A0003A687B681100180000F0ACFB14E03A683C
:1039B0007B681100180000F0D4FB0DE03A687B68CA
:1039C0001100180000F0ECFB06E03A687B6811007B
:1039D000180000F04FFCC0460F23FB181B7818009E
:1039E000BD4604B080BDC046906D000880B584B06F
:1039F00000AF786039600F23FB1800221A707A68D4
:103A0000FE235B00D35C032B22D13B689B88DBB297
:103A1000012B16D87A6885239B00D3589B68396898
:103A20007A68100098473B68DB88002B17D10F237A
:103A3000FB181B78002B12D17B68180000F00BFDDF
:103A40000DE03A687B681100180000F013FC06E0F6
:103A50003A687B681100180000F00CFC00E0C046DA
:103A600000231800BD4604B080BD80B584B000AF0F
:103A7000786039600F23FB1800221A703B689A881F
:103A80000E23FB181A703B681B781A006023134042
:103A9000202B0AD17A6885239B00D3589B6839680C
:103AA0007A68100098470023F1E03B685B78012BAF
:103AB0004ED0032B03D0002B00D190E0E4E07A68D5
:103AC000FE235B00D35C022B02D0032B13D036E025
:103AD0000E23FB181B78002B38D00E23FB181B7805
:103AE000802B33D00E23FB181A787B681100180046
:103AF00002F04CF92AE03B685B88002B11D10E23C1
:103B0000FB181B78002B0CD00E23FB181B78802B86
:103B100007D00E23FB181A787B681100180002F0FA
:103B200035F97A6885239B00D3589B6839687A6891
:103B3000100098477B68180000F08DFC07E03A6899
:103B40007B681100180000F095FB00E0C0469BE088
:103B50007A68FE235B00D35C022B02D0032B13D0C8
:103B600032E00E23FB181B78002B34D00E23FB18F9
:103B70001B78802B2FD00E23FB181A787B6811003E
:103B8000180002F003F926E03B685B88002B24D183
:103B90000E23FB181B787F22134010D00E23FB1836
:103BA0001A787B681100180002F006F97A688523FC
:103BB0009B00D3589B6839687A68100098477B68E7
:103BC000180000F048FC08E03A687B681100180013
:103BD00000F050FB02E0C04656E0C04654E07A6870
:103BE000FE235B00D35C022B02D0032B0FD042E0FC
:103BF0000E23FB181B787F22134043D00E23FB18A3
:103C00001A787B681100180002F0C0F83AE00E2321
:103C1000FB181B785BB2002B0ADA0E23FB181B780B
:103C20007F22134001331B017A68D318043309E063
:103C30000E23FB181B787F22134010331B017A6878
:103C4000D3180433BB600E23FB181A787B6811006D
:103C5000180002F0C7F8031E03D0BB6801221A60E7
:103C600002E0BB6800221A60B9687B680222180073
:103C700000F087FB07E03A687B681100180000F04D
:103C8000F9FA00E0C046C0460F23FB181B78180065
:103C9000BD4604B080BD000080B584B000AF786040
:103CA00039603B685B881B0A9BB2072B00D9D6E0C2
:103CB0009A00804BD3181B689F467A6884239B0028
:103CC000D3581B687A68127C0A217918100098472B
:103CD0000300FB60CAE07B681B7C002B0FD17A6875
:103CE00085239B00D3589B6A0A22BA181000984774
:103CF0000300FB60FB68013302221A70B6E07A68A9
:103D000085239B00D358DB6A0A22BA181000984713
:103D10000300FB60FB68013302221A70A6E03B68D7
:103D20005B88DBB2052B58D89A00634BD3181B680D
:103D30009F467A6884239B00D3585B687A68127C1C
:103D40000A217918100098470300FB6054E07A6854
:103D500084239B00D3589B687A68127C0A217918C7
:103D6000100098470300FB6046E07A6884239B00BC
:103D7000D358DB687A68127C0A21791810009847BA
:103D80000300FB6038E07A6884239B00D3581B69EA
:103D90007A68127C0A217918100098470300FB60AA
:103DA0002AE07A6884239B00D3585B697A68127C86
:103DB0000A217918100098470300FB601CE07A681C
:103DC00084239B00D3589B697A68127C0A21791856
:103DD000100098470300FB600EE07A6885239B0083
:103DE000D3589B6B3A685288D1B20A22BA187868C5
:103DF00098470300FB60C04638E07B681B7C002BC3
:103E00000BD17A6885239B00D3585B6B0A22BA18C2
:103E1000100098470300FB6028E03A687B681100B7
:103E2000180000F027FA42E07B681B7C002B0FD1C2
:103E30007A6885239B00D3581B6B0A22BA1810009E
:103E400098470300FB60FB68013307221A700DE0FE
:103E50003A687B681100180000F00CFA27E03A6815
:103E60007B681100180000F005FA20E00A23FB1817
:103E70001B88002B1BD03B68DB88002B17D03B68CE
:103E8000DA880A23FB181B88181C111C8AB283B21B
:103E90009A4200D9011C8AB20A23FB181A800A230D
:103EA000FB181A88F9687B68180000F06AFABD46AA
:103EB00004B080BDB86D0008D86D000880B584B02E
:103EC00000AF786039603B689B88002B3CD13B6831
:103ED000DB88002B38D13B685B88DAB20F23FB18F4
:103EE0007F210A401A707A68FE235B00D35C032BA3
:103EF00006D13A687B681100180000F0BBF929E090
:103F00007A680F23F918FF235B000978D1540F2337
:103F1000FB181A787B681100180001F094FF7B6889
:103F2000180000F098FA0F23FB181B78002B05D01F
:103F30007A68FE235B000221D1540BE07A68FE23ED
:103F40005B000121D15405E03A687B68110018003C
:103F500000F090F9C046BD4604B080BD80B582B087
:103F600000AF786039603B685B88DAB2484B1A7002
:103F7000474B1B78012B06D93A687B681100180063
:103F800000F078F981E07A68FE235B00D35C022BB5
:103F900002D0032B29D071E03D4B1B78002B1FD0A2
:103FA0003B4B1B781A007B685A607A68FE235B00E3
:103FB0000321D154364B1A787B6811001800FFF7A3
:103FC00091FA0300022B06D13A687B6811001800B1
:103FD00000F050F959E07B68180000F03CFA54E01A
:103FE0007B68180000F037FA4FE0294B1B78002B54
:103FF00015D17A68FE235B000221D154244B1B7833
:104000001A007B685A60224B1A787B6811001800EE
:10401000FFF790FA7B68180000F01DFA35E01C4BA2
:104020001B781A007B685B689A4222D07B685B68C9
:10403000DAB27B6811001800FFF77CFA144B1B788A
:104040001A007B685A60124B1A787B6811001800BE
:10405000FFF748FA0300022B06D13A687B6811008B
:10406000180000F007F910E07B68180000F0F3F981
:104070000BE07B68180000F0EEF906E03A687B6818
:104080001100180000F0F6F8C046BD4602B080BD31
:104090001402002080B582B000AF786039603B68C0
:1040A000DB88012B06D03A687B681100180000F00D
:1040B000E1F823E07A68FE235B00D35C022B02D098
:1040C000032B0CD013E07B6800229A607B680833D6
:1040D00019007B680122180000F053F90EE07B689C
:1040E000191D7B680122180000F04BF906E03A68C0
:1040F0007B681100180000F0BDF8C046C046BD4600
:1041000002B080BD80B582B000AF786039607A6857
:10411000FE235B00D35C023B012B17D87B68002297
:10412000DA607A6881239B00D358002B05D07B6826
:10413000DB6802221A437B68DA607B680C33190063
:104140007B680222180000F01CF906E03A687B68E0
:104150001100180000F08EF8C046C046BD4602B0FF
:1041600080BD80B582B000AF786039603B685B8805
:10417000012B11D17A6881239B000121D1507A68EB
:1041800085239B00D3589B6839687A68100098474C
:104190007B68180000F05FF9C046BD4602B080BDE4
:1041A00080B582B000AF786039607A68FE235B002A
:1041B000D35C023B012B16D83B685B88012B19D1DD
:1041C0007A6881239B000021D1507A6885239B0067
:1041D000D3589B6839687A68100098477B68180044
:1041E00000F039F906E03A687B681100180000F029
:1041F00041F800E0C046C046BD4602B080BD80B573
:1042000082B000AF786039603B681A787B681A70BA
:104210003B685A787B685A703B6802331B789AB2C5
:104220003B6803331B789BB21B029BB2D3189AB234
:104230007B685A803B6804331B789AB23B6805332D
:104240001B789BB21B029BB2D3189AB27B689A80F0
:104250003B6806331B789AB23B6807331B789BB2E6
:104260001B029BB2D3189AB27B68DA80C046BD4667
:1042700002B080BD80B582B000AF786039607B68E5
:104280008021180001F082FD7B680021180001F0F8
:104290007DFDC046BD4602B080BD80B586B000AF92
:1042A000F860B9607A601723FB1800221A70FB6867
:1042B000002B44D0FB68180000F045F803000133E0
:1042C0009BB2DB189AB27B681A801723FB181B7805
:1042D0001722BA18591C11701A00BB689B187A680B
:1042E0001288D2B21A701723FB181B781722BA183B
:1042F000591C11701A00BB689B1803221A701AE02F
:104300001723FB181B781722BA18591C11701A00B2
:10431000BB689A18FB68591CF9601B781370172347
:10432000FB181B781722BA18591C11701A00BB68A9
:104330009B1800221A70FB681B78002BE0D1C04646
:10434000BD4606B080BD80B584B000AF78600F2355
:10435000FB1800221A7009E00F23FB181A780F23AC
:10436000FB1801321A707B6801337B607B681B7815
:10437000002BF1D10F23FB181B781800BD4604B0A9
:1043800080BD80B584B000AFF860B960BB1D1A80F5
:10439000FA68FA235B000221D150BB1D1A88FB6822
:1043A0009A61BB1D1A88FB68DA61BB1D1B88BA685D
:1043B000F868002101F05DFD00231800BD4604B03F
:1043C00080BD80B584B000AFF860B960BB1D1A80B5
:1043D000BB1D1B88BA68F868002101F04AFD002364
:1043E0001800BD4604B080BD80B584B000AFF86051
:1043F000B960BB1D1A80FA68FA235B000321D15013
:10440000BB1D1988FA6884235B00D150BB1D198835
:10441000FA6886235B00D150BB1D1B88BA68F86818
:10442000002101F048FD00231800BD4604B080BD06
:1044300080B584B000AFF860B960BB1D1A80BB1DA9
:104440001B88BA68F868002101F035FD00231800C8
:10445000BD4604B080BD80B582B000AF78607A6898
:10446000FA235B000421D150786800230022002148
:1044700001F0FFFC00231800BD4602B080BD80B5EE
:1044800082B000AF78607A68FA235B000521D150D2
:10449000786800230022002101F00DFD00231800A0
:1044A000BD4602B080BD000080B588B000AF786026
:1044B00039601E4B1D4AD269802189040A43DA61A2
:1044C0001A4BDA6980239B041340BB60BB680C2342
:1044D000FB18C02292001A600C23FB1802225A60BB
:1044E0000C23FB1800229A600C23FB180322DA60CD
:1044F0000C23FB1804221A610C23FB180C4A190028
:104500001000FCF769F97B683A681A607B6806223C
:104510009A807B680D229A717B680222DA717B682F
:1045200001221A72C046BD4608B080BD001002408C
:104530000004004890B583B000AF78600C00100014
:104540001900BB1C221C1A807B1C021C1A703B0029
:104550000A1C1A70BB1C1B88002B35D0BB1C1A8888
:104560008023DB009A422FD87B1C1B78002B2BD09A
:104570007B1C1B78102B27D83B001B78002B23D0EB
:104580003B001B78082B1FD81823FB181B78002B27
:104590001AD01823FB181B78042B15D8BB1C1B88BA
:1045A0009B059B0D9AB27B689A807B687A1C127877
:1045B0009A717B683A001278DA717B681822BA180F
:1045C00012781A72012300E000231800BD4603B0E0
:1045D00090BD000090B587B000AF78600C0010006F
:1045E0001900FB1C221C1A70BB1C021C1A707B1CBD
:1045F0000A1C1A707B681B687B617B1C1B78002B74
:1046000001D0552300E045233B617B681B7A013BC9
:104610001A067B689B79013B1B041A437B68DB7994
:10462000013B1B0513437A689288013A1A43FB1C2D
:104630001B78002B02D08023DB0500E000231A4307
:10464000BB1C1B78002B02D080231B0600E000233C
:104650001343FB607B691B68802212021A437B694B
:104660001A60C0467B691A6880231B021340F9D187
:10467000C0467B695B6802221340FAD07B691B68E5
:1046800001221A437B691A60C0467B695B6801227C
:104690001340FAD07B693A691A607B69FA68DA617B
:1046A0007B691B68012293431A007B691A60C0462C
:1046B0007B695B6801221340FAD10123BB607A69F0
:1046C00080239B00D35801221A4311007A6980236A
:1046D0009B00D1507A6980239B00D3582C4A134009
:1046E00019007A6980239B00D1507A6987239B0047
:1046F000D358BA68D2431A4011007A6987239B00C5
:10470000D1507A6983239B00D258BB681A431100A9
:104710007A6983239B00D1507A6981239B00D35807
:10472000BA68D2431A4011007A6981239B00D150A4
:104730007A6990239B000021D1507A6991239B00D4
:104740000021D1507A6985239B00D358BA68D2439F
:104750001A4011007A6985239B00D1507A6987231A
:104760009B00D258BB681A4311007A6987239B00CB
:10477000D1507A6980239B00D358012293431900BA
:104780007A6980239B00D150C046BD4607B090BDDA
:10479000FFC0FFFF80B584B000AF78607B681B6806
:1047A000FB60FB681B6801221A43FB681A60C04665
:1047B000BD4604B080BD80B584B000AF78607B6832
:1047C0001B68FB60FB68DB68032213405A1E9341A1
:1047D000DBB21800BD4604B080BD90B585B000AF17
:1047E000786039607B681B68FB607B681800FFF7A6
:1047F000E2FF031E00D1E3E0FB68B133FF33BB608F
:10480000BB681B680422134031D0BB681B68DB08FF
:10481000DB00DB08802212061A433B68FF211140AF
:104820000C00197900200140081C211C014319715A
:10483000110AFF2001400C00597900200140081C9A
:10484000211C01435971110CFF2001400C00997982
:1048500000200140081C211C01439971100EDA79D7
:1048600000210A40111C021C0A43DA712DE0BB68CA
:104870001B685B0D5B055A0D3B68FF2111400C0066
:10488000197900200140081C211C01431971110AEB
:10489000FF2001400C00597900200140081C211C18
:1048A00001435971110CFF2001400C00997900203F
:1048B0000140081C211C01439971100EDA79002176
:1048C0000A40111C021C0A43DA71BB681B680222F1
:1048D000134037D03B681A79597909020A4399790C
:1048E00009040A43DB791B0613431A008023DB0506
:1048F0001A433B68FF2111400C0019790020014048
:10490000081C211C01431971110AFF2001400C00F1
:10491000597900200140081C211C01435971110CD8
:10492000FF2001400C00997900200140081C211C47
:1049300001439971100EDA7900210A40111C021C02
:104940000A43DA71BB685B68DBB20F221340DAB24C
:104950003B681A72BB689B68DAB23B681A73BB6823
:104960009B681B0ADAB23B685A73BB689B681B0CD6
:10497000DAB23B689A73BB689B681B0EDAB23B687D
:10498000DA73BB68DB68DAB23B681A74BB68DB6851
:104990001B0ADAB23B685A74BB68DB681B0CDAB2DC
:1049A0003B689A74BB68DB681B0EDAB23B68DA744A
:1049B000FB68DB6820221A43FB68DA60012300E011
:1049C00000231800BD4605B090BD80B584B000AF8F
:1049D00078607B681B68FB60FB689B68BB60BA689B
:1049E0008023DB04134003D0FB688133FF3312E0E4
:1049F000BA6880231B05134003D0FB689133FF3353
:104A000009E0BA6880235B05134003D0FB68A1333B
:104A1000FF3300E000231800BD4604B080BD80B520
:104A200084B000AF786039607B681800FFF7CDFF75
:104A30000300FB60FB68002B00D181E0FB681B6872
:104A400001221A40FB681A603B681A7959790902F9
:104A50000A43997909040A43DB791B06134310D5ED
:104A60003B681A79597909020A43997909040A437A
:104A7000DB791B061343DB0004221A43FB681A6030
:104A80000DE03B681A79597909020A4399790904BA
:104A90000A43DB791B0613435A05FB681A603B681F
:104AA0001A79597909020A43997909040A43DB7989
:104AB0001B0613431A008023DB05134005D0FB6857
:104AC0001B6802221A43FB681A60FB685B680F22AE
:104AD00093431A00FB685A60FB685A683B681B7A6C
:104AE00019000F230B401A43FB685A603B68DB7BBD
:104AF0001A063B689B7B1B041A433B685B7B1B02CB
:104B000013433A68127B13431A00FB689A603B68B0
:104B1000DB7C1A063B689B7C1B041A433B685B7C6E
:104B20001B0213433A68127C13431A00FB68DA60D5
:104B3000FB681B6801221A43FB681A60012300E02E
:104B400000231800BD4604B080BD80B584B000AF1E
:104B500078607B681B68FB60FB689B691800BD463A
:104B600004B080BD90B585B000AF786039603B6817
:104B70001A78012149420A431A705A7801214942A0
:104B80000A435A709A78012149420A439A70DA78A6
:104B9000012149420A43DA703B681A7900210A4030
:104BA000111C04220A431A715A7900210A405A71D1
:104BB0009A7900210A409A71DA7900210A40111C81
:104BC00020220A43DA713B6808221A723B680022ED
:104BD0001A733B6800225A733B6800229A733B6841
:104BE0000022DA733B6800221A743B6800225A7470
:104BF0003B6800229A743B680022DA747B680422C6
:104C0000134036D03B681A79597909020A439979D9
:104C100009040A43DB791B0613431A0040231A4395
:104C20003B68FF2111400C00197900200140081C4D
:104C3000211C01431971110AFF2001400C00597910
:104C400000200140081C211C01435971110CFF2058
:104C500001400C00997900200140081C211C0143EF
:104C60009971100EDA7900210A40111C021C0A43C6
:104C7000DA717B680222134007D03B685B7B3022ED
:104C80001343DAB23B685A730AE07B68012213408F
:104C900006D03B685B7B0C221343DAB23B685A7345
:104CA0007B681B09DAB20F23FB1807210A401A7030
:104CB0000F23FB181B78002B00D17EE10F23FB187C
:104CC0001B78062B00D977E19A00BE4BD3181B68DE
:104CD0009F463B681A79597909020A439979090470
:104CE0000A43DB791B0613431A0008231A433B6867
:104CF000FF2111400C00197900200140081C211CE3
:104D000001431971110AFF2001400C00597900205C
:104D10000140081C211C01435971110CFF20014066
:104D20000C00997900200140081C211C0143997155
:104D3000100EDA7900210A40111C021C0A43DA71B4
:104D40003B689B7B04221343DAB23B689A7334E1DD
:104D50003B681A79597909020A43997909040A4387
:104D6000DB791B0613431A0008231A433B68FF2113
:104D700011400C00197900200140081C211C01433E
:104D80001971110AFF2001400C00597900200140DF
:104D9000081C211C01435971110CFF2001400C001B
:104DA000997900200140081C211C01439971100EC3
:104DB000DA7900210A40111C021C0A43DA713B68AF
:104DC0009B7B02221343DAB23B689A73F5E03B689F
:104DD0001A79597909020A43997909040A43DB7956
:104DE0001B0613431A0020231A433B68FF2111407E
:104DF0000C00197900200140081C211C0143197185
:104E0000110AFF2001400C00597900200140081CC4
:104E1000211C01435971110CFF2001400C009979AC
:104E200000200140081C211C01439971100EDA7901
:104E300000210A40111C021C0A43DA71BDE03B68E4
:104E40001A79597909020A43997909040A43DB79E5
:104E50001B0613431A0008231A433B68FF21114025
:104E60000C00197900200140081C211C0143197114
:104E7000110AFF2001400C00597900200140081C54
:104E8000211C01435971110CFF2001400C0099793C
:104E900000200140081C211C01439971100EDA7991
:104EA00000210A40111C021C0A43DA713B689B7BFB
:104EB00010221343DAB23B689A737EE03B681A799A
:104EC000597909020A43997909040A43DB791B06D7
:104ED00013431A0008231A433B68FF2111400C00BA
:104EE000197900200140081C211C01431971110A85
:104EF000FF2001400C00597900200140081C211CB2
:104F000001435971110CFF2001400C0099790020D8
:104F10000140081C211C01439971100EDA7900210F
:104F20000A40111C021C0A43DA713B689B7B082271
:104F30001343DAB23B689A733FE03B681A795979B8
:104F400009020A43997909040A43DB791B061343D2
:104F50001A0008231A433B68FF2111400C001979FD
:104F600000200140081C211C01431971110AFF2077
:104F700001400C00597900200140081C211C01430C
:104F80005971110CFF2001400C009979002001405B
:104F9000081C211C01439971100EDA7900210A4086
:104FA000111C021C0A43DA713B68DB7B08221343A5
:104FB000DAB23B68DA7300E0C04601231800BD4650
:104FC00005B090BDF06D000880B500AFBFF34F8F06
:104FD000034B044ADA60BFF34F8FC046FDE7C0467B
:104FE00000ED00E00400FA0580B500AF034B044A71
:104FF0001A60FFF7E9FFC046BD4680BD18020020D9
:10500000EFBEADDE80B500AF034B1A68034B1A60EC
:10501000C046BD4680BDC046F40100201C020020F1
:1050200080B582B000AF02003960FB1D1A70FB1D15
:105030001B78002B11D1FB1D1A780A4B9200D25815
:105040003B689A4207D0FB1D1A78064B92003968DC
:10505000D15000F021F8012300E000231800BD46E4
:1050600002B080BD1C02002080B582B000AF0200FB
:10507000FB1D1A70FB1D1B78002B05D1FB1D1A7838
:10508000044B9200D35800E000231800BD4602B044
:1050900080BDC0461C02002080B500AFC046BD46A2
:1050A00080BD80B586B000AF3B001800FBF77EFBEB
:1050B0003B005B7B7F2B13D03B0004221A603B003C
:1050C0007F225A73FBF712FAFBF722FAFBF7AAFAD0
:1050D0003B001800FBF7D4FAFBF72EFAFBF762FA55
:1050E000C046BD4606B080BD80B588B000AF174B46
:1050F000164A5269802189020A435A61134B5A6940
:1051000080239B021340BB60BB68104B0F4A52695F
:105110008021C9020A435A610C4B5A698023DB0281
:1051200013407B607B68094B084A52698021090360
:105130000A435A61054B5A6980231B0313403B60A5
:105140003B68C046BD4608B080BDC0460010024066
:1051500080B500AFC046BD4680BD80B500AFFEE75C
:1051600080B500AFFBF78CF8FBF796F9C046BD465B
:1051700080BD000080B500AF034B1800FBF7A0FD19
:10518000C046BD4680BDC046C804002090B589B069
:1051900000AF0023FB61FFF784FFFBF741F800F04D
:1051A000B1F9FFF72FFFFFF79FFF00F0FDFBBD4AAE
:1051B000BD4B11001800FFF777F9BB4B1800FFF744
:1051C000E9FA402000F08AFA0200B84B1A60402049
:1051D00000F084FA0200B64B1A60402000F07EFA1C
:1051E0000200B44B1A601821402001F0ABFC030010
:1051F0007B610023BB610FE0AC4B1868BA691300F8
:105200005B009B18DB001A007B699B18190000F0FB
:1052100080FABB690133BB61BB693F2BECD9A6495E
:10522000A64B00221800FEF7F5F8A54AA34B110083
:105230001800FEF720F99D4B19689D4B1A68A14B89
:105240009E4800F023FF984A9C4B0021180000F074
:10525000BAFF9A4B1800FEF72FF9954B1B68180000
:1052600000F0D0FA03003B613B69002B3FD03A6964
:105270008D4B11001800FFF7D2FB031E30D000F059
:10528000D9FB02003B69FF2111400C00197D002071
:105290000140081C211C01431975110AFF2001401F
:1052A0000C00597D00200140081C211C0143597548
:1052B000110CFF2001400C00997D00200140081CCA
:1052C000211C01439975100EDA7D00210A40111C42
:1052D000021C0A43DA753B69180000F08FF906E0FA
:1052E000734B1B683A691100180000F04DFA734BBC
:1052F000180001F0D0FA031E01D000F0BFF96A4B8C
:105300001800FFF758FA031E6CD0684B1B68180092
:1053100000F078FA0300FB60FB68002B5BD0FA68B2
:10532000614B11001800FFF758FA031E53D0664B6B
:105330001B685A1C644B1A6000F07CFB0200FB687F
:10534000FF2111400C00197D00200140081C211C88
:1053500001431975110AFF2001400C00597D0020FE
:105360000140081C211C01435975110CFF2001400C
:105370000C00997D00200140081C211C01439975F7
:10538000100EDA7D00210A40111C021C0A43DA7556
:10539000FB681A78012149420A431A705A780121A0
:1053A00049420A435A709A78012149420A439A7045
:1053B000DA78012149420A43DA70FB6800225A7206
:1053C000FB6800229A72FB680022DA72FB68180000
:1053D00000F014F906E0354B1B68FA68110018005C
:1053E00000F097F9304B1800FFF7AFFB0300BB60EC
:1053F000BA68FB699A424BD02C4B1B68180000F02E
:1054000001FA03007B607B68002B41D000F012FBA7
:1054100002007B68FF2111400C00197D0020014033
:10542000081C211C01431975110AFF2001400C00C2
:10543000597D00200140081C211C01435975110CA5
:10544000FF2001400C00997D00200140081C211C18
:1054500001439975100EDA7D00210A40111C021CCF
:105460000A43DA757A68BB6811001800FFF77AFB07
:10547000031E06D07B68180000F0C0F8BB68FB6113
:1054800006E00A4B1B687A681100180000F041F929
:105490000A4B180001F0BAFA031E00D1DDE6FFF74F
:1054A000A3FDDAE6006400406002002058020020FC
:1054B000A00200205C02002004000020A4020020C2
:1054C000380000206C0200202002002080B582B04D
:1054D00000AF0B4B0A4A926901210A439A61084BBB
:1054E0009B69012213407B607B6801235B420022A1
:1054F00000211800FAF782FFC046BD4602B080BD09
:105500000010024080B59EB000AF4423FB1820225B
:105510001A604423FB1801221A624423FB1800225C
:105520005A624423FB181800FDF7C2FB3423FB1812
:1055300007221A603423FB1803225A603423FB1815
:1055400000229A603423FB180022DA603423FB180F
:1055500001211800FDF79AFC1C23FB1880229202FF
:105560001A601C23FB1800225A611C23FB18180028
:10557000FDF71CFE1F4B1F4AD269802109050A4313
:10558000DA611C4BDA6980231B0513403B603B68E2
:105590003B1D00221A603B1D802292055A603B1D74
:1055A00000229A603B1D144ADA603B1D22221A61D8
:1055B0003B1D20225A613B1D1800FDF7E5FEFDF75B
:1055C000EBFD0200FA2399001000FAF79DFD03009D
:1055D0001800FAF739FF0420FAF744FF01235B4271
:1055E000002200211800FAF709FFC046BD461EB090
:1055F00080BDC046001002407FBB000080B584B073
:1056000000AF78601A4B180001F078F90300022B04
:1056100008D1184B1B687A681100180000F079F85F
:10562000012321E00F23FB1800221A707A68104B27
:105630001100180001F077F9031E0BD10E4B1B6807
:105640007A681100180000F064F80F23FB1801229B
:105650001A7006E0074B1B687A681100180000F00A
:1056600058F80F23FB181B781800BD4604B080BD06
:10567000A40200205C0200205802002080B582B005
:1056800000AF134B1B68180000F0BCF803007B60F0
:105690007B68002B17D07A680E4B1100180001F0C0
:1056A00042F9031E07D10C4B1B687A6811001800E1
:1056B00000F02FF808E0064B1B687A68110018000C
:1056C00000F062F800E0C046BD4602B080BDC046B2
:1056D0005C020020A40200205802002080B584B0A3
:1056E00000AF78601021012001F02CFA0300FB606C
:1056F0007B680421180001F025FA03001A00FB68FA
:10570000DA60FB687A681A60FB681800BD4604B06E
:1057100080BD80B586B000AF786039601723FB1874
:1057200000221A7001F082F903003B617B689A68DD
:105730007B681B689A421CD27B685A687B689B68AE
:10574000D2187B681B6819001000FAF763FD0B0084
:10575000FB607B68DA68FB689B00D3183A681A60C4
:105760007B689B685A1C7B689A601723FB18012290
:105770001A703B69180001F067F91723FB181B78B2
:105780001800BD4606B080BD80B584B000AF78601B
:1057900039600F23FB1800221A7001F047F903004B
:1057A000BB607B689A687B681B689A421FD27B68E3
:1057B0005B68002B05D17B681B685A1E7B685A60AA
:1057C00004E07B685B685A1E7B685A607B68DA6815
:1057D0007B685B689B00D3183A681A607B689B689B
:1057E0005A1C7B689A600F23FB1801221A70BB6851
:1057F000180001F029F90F23FB181B781800BD468B
:1058000004B080BD80B584B000AF786001F00EF9BF
:105810000300BB600023FB607B689B68002B19D0F2
:105820007B68DA687B685B689B00D3181B68FB6049
:105830007B685B685A1C7B681B6819001000FAF7CC
:10584000E9FC0B001A007B685A607B689B685A1E53
:105850007B689A60BB68180001F0F6F8FB681800D6
:10586000BD4604B080BD80B584B000AF78603960BB
:105870000F23FB1800221A707B689A687B681B68EC
:105880009A421CD27B685A687B689B68D2187B68F6
:105890001B6819001000FAF7BDFC0B00BB607B68A9
:1058A000DA68BB689B00D3183A681A607B689B680B
:1058B0005A1C7B689A600F23FB1801221A700F2371
:1058C000FB181B781800BD4604B080BD80B584B0BD
:1058D00000AF78600023FB607B689B68002B19D0C9
:1058E0007B68DA687B685B689B00D3181B68FB6089
:1058F0007B685B685A1C7B681B6819001000FAF70C
:1059000089FC0B001A007B685A607B689B685A1EF2
:105910007B689A60FB681800BD4604B080BD00003B
:1059200080B500AF1A4B1A4A126801210A431A6067
:10593000174B174A526817490A405A60144B144AC9
:10594000126815490A401A60114B114A126813492E
:105950000A401A600E4B0E4A526811490A405A60BA
:105960000B4B0B4AD26A0F218A43DA62084B084A72
:10597000126B0C490A401A63054B054A526B012110
:105980008A435A63024B00229A60C046BD4680BDDE
:10599000001002400CB8FF08FFFFF6FEFFFFFBFF00
:1059A000FFFFC0FF2CFEFFFF80B582B000AF204B91
:1059B0001F4AD26901210A43DA611D4BDB690122CA
:1059C00013407B607B688023DB0500221A60802304
:1059D000DB0500225A608023DB0500229A608023C9
:1059E000DB050022DA608023DB0500229A61802338
:1059F000DB050022DA618023DB0500221A628023A6
:105A0000DB052F229A628023DB0501225242DA62F3
:105A10008023DB058022D205126801210A431A6027
:105A20008023DB0501225A61C046BD4602B080BD1D
:105A30000010024080B500AF8023DB055B6A1800D0
:105A4000BD4680BD80B584B000AF78607B681B68C0
:105A50000E4A934215D10E4B0D4AD269802109049A
:105A60000A43DA610A4BDA6980231B041340FB60A6
:105A7000FB68002201211F20FAF7C0FC1F20FAF763
:105A8000D3FCC046BD4604B080BDC046005C0040AB
:105A90000010024090B585B000AF78607A68872327
:105AA0009B00D358BB60BB68822292009A187B6827
:105AB000ED33FF3319001000FEF7A1FB0F23FB1895
:105AC00000221A70BA6882239B00D35C1A001F233D
:105AD00013400CD1BB68822292009A180F23FC1845
